:020000040800F2
:100000000080002019160008C9150008CB1500084B
:10001000CD150008CF150008D1150008000000001C
:10002000000000000000000000000000D3150008E0
:10003000D515000800000000D7150008D9150008E4
:100040006916000869160008691600086916000894
:100050006916000869160008691600086916000884
:100060006916000869160008691600086916000874
:100070006916000869160008691600086916000864
:1000800069160008000000006916000869160008DB
:100090006916000869160008691600086916000844
:1000A0006916000869160008691600086916000834
:1000B000691600086916000869160008DD150008B1
:1000C000E11500086916000869160008691600089D
:1000D0006916000869160008691600086916000804
:1000E00069160008691600086916000869160008F4
:1000F000691600086916000869160008000000006B
:1001000000000000691600080000000069160008E1
:10011000691600080000000069160008691600084A
:1001200069160008691600086916000869160008B3
:1001300069160008000000000000000069160008B1
:1001400069160008691600080000000000000000A1
:10015000000000000000000000000000000000009F
:100160000000000000000000000000006916000808
:1001700069160008000000000000000000000000F8
:1001800000000000691600080000000000000000E8
:10019000000000000000000000000000000000005F
:1001A0000000000000000000691600086916000841
:1001B00069160008691600086916000800000000AA
:1001C00000000000691600080000000000000000A8
:1001D00069160008691600080348044B834202D0E0
:1001E000034B03B118477047300000203000002057
:1001F000000000000548064B1B1AD90F01EBA301B4
:10020000491002D0034B03B118477047300000205B
:10021000300000200000000010B5064C237843B9E0
:10022000FFF7DAFF044B13B10448AFF3008001235A
:10023000237010BD3000002000000000C41600082C
:1002400008B5054B1BB105490548AFF30080BDE873
:100250000840FFF7CFBF00BF0000000034000020BF
:10026000C4160008034AD2F8883043F47003C2F879
:100270008830704700ED00E04FF0E02382B01B694A
:100280000193411C019B18BF01304FF0E0231A6914
:10029000D203FCD50138FAD102B07047014B186087
:1002A000704700BF00000020F0B522F0030605688B
:1002B0000B4697080E44B3420AD112F0030204D051
:1002C000012A11F8274014D12C7003681868F0BD7A
:1002D0005C7893F800C0240444EA0C6493F803C0EB
:1002E00044EA0C0493F802C044EA0C242C60043362
:1002F000E1E7597841EA04212980022A1CBF9B7852
:100300002B70E2E70068F0B5002355088E1C9D4273
:1003100006D1D30744BF31F8253003800068F0BD13
:1003200031F8237036F8234044EA0744046001336F
:10033000EDE7000010B5044608B9012010BD437F69
:1003400003F0FF0213B9027701F08CF80223637700
:100350002379E3B92368134A5A619A6822F0180294
:100360009A6062792368D2B94FF0FF321A619A68B5
:10037000616922F060020A439A609A68A16922F0DA
:1003800080020A439A60012363770020D6E7D4E90C
:100390000212204600F045F80028E2D0CDE722699D
:1003A000E4E700BFB71DC10438B5054698B1437FE7
:1003B000022BDCB20DD00223437703689A6842F027
:1003C00001029A6000245A685C6001F05FF86C7763
:1003D0002C77204638BD0124FBE7F8B50225457788
:1003E0000568AF6847F00107AF60076A022F04464F
:1003F00014D0032F05D0012F0DD0002001236377E7
:10040000F8BD01EB8206B14201D12868F6E751F848
:10041000043B2B60F7E7FFF747FFEFE7FFF772FFBB
:10042000ECE710B51E2321FA03F4E40708D5102ADF
:1004300018D0102A09D862B1082A15D0012010E07E
:10044000013BF0D2102AF4D1F8E7182AF6D1062B96
:10045000F4D800684161836823F018031343836074
:10046000002010BD072BF3E70F2BF1E770470000CA
:1004700010B5094B4FF0FF3200249A639C631A6455
:100480001C649A629C62DA62DC621A631C63FFF786
:10049000EDFF204610BD00BF0010024038B50F4BE5
:1004A0001A6805460AB9012038BD4FF47A73B3FBC8
:1004B000F2F30B4A1068B0FBF3F000F007FB0446C0
:1004C0000028F0D10F2DEED8024629464FF0FF301C
:1004D00000F0CEFA034B20461D60E5E70400002043
:1004E000000000200800002010B5032000F0AEFA44
:1004F0000F20FFF7D3FF044618B901F073F8204628
:1005000010BD0124FBE70000034A04491368096891
:100510000B441360704700BF4C0000200400002013
:10052000014B1868704700BF4C00002070B5294C83
:10053000FFF7F6FF236843F48073054623602368C2
:100540005B0531D5636843F080436360FFF7E8FFE4
:1005500001230646A36041F28835A36803F00C032B
:10056000042B29D11C4B1D4A1A601D4B1868FFF73C
:1005700095FF054660BB4FF4807323602360FFF74F
:10058000CFFF0646236813F000731BD14FF480524F
:10059000E260A3614FF0FF332362D4F8943043F458
:1005A0000003C4F8943005E0FFF7BAFF401B0228AF
:1005B000C5D90325284670BDFFF7B2FF801BA842AE
:1005C000CBD9F6E7FFF7ACFF801B0228DAD9F0E7BA
:1005D0000125EFE700100240000000200024F40095
:1005E00008000020094A536943F4802310B5536181
:1005F000EFF3108272B60023CC58C4500433B3F525
:10060000807FF9D182F3108810BD00BF0020024026
:10061000064B5A69002ABFBF054A9A6002F1883228
:100620009A60BABF5869C00F00207047002002408E
:1006300023016745044B5A6942F000425A615869E8
:10064000C043C00F704700BF0020024070B5054690
:10065000FFF766FF0F4C06462369DA030BD42369C4
:100660004CF2FA3213400DD00B494A681A434A60E3
:100670000120236170BDFFF753FF801BA842EBD917
:100680000320F7E72369DB0744BF01232361002030
:10069000F0E700BF002002400C0000202DE9F047E9
:1006A0001D4E98463378012B05460F46914631D0B2
:1006B0004FF0010A4FF47A7086F800A0FFF7C6FFEA
:1006C0000446B8B97060CDB9144B586940EA0A00C5
:1006D0005861C7F80090BFF36F8FC7F80480544685
:1006E0004FF47A70FFF7B2FF24B10C4A536923EA42
:1006F0000403536100233370BDE8F0876B1E012BA8
:10070000EED849463846FFF76DFFAB1E5D425D41AE
:10071000AC04E5E70220EFE70C00002000200240D7
:10072000064B10F0010F1EBF5A6942F004025A61D5
:100730005A6942F480325A61704700BF002002407B
:10074000084B5A69C00022F4FC7200F4FF601043A9
:1007500058615A6942F002025A615A6942F4803281
:100760005A617047002002401448027F02F0FD03E6
:10077000012B10D1124B196821F40071196019680E
:1007800041F400611960196821F400611960196869
:1007900041F400711960023A012A0CD8084B1A681A
:1007A00042F480521A601A6822F480521A601A6861
:1007B00042F480621A600023037770470C00002027
:1007C000002002402DE9F843314D2B78012B0646DD
:1007D00088465AD001274FF47A702F70FFF736FF02
:1007E000044610BB2B4B68601A6812F4007F1A682D
:1007F00020D0510506D51A6822F480621A600323BE
:100800002B7700E02F773368012B1DD17068FFF73D
:1008100087FF4FF47A70FFF719FF1E4A536923F0E0
:10082000040304465361FFF79FFF00232B7020460B
:10083000BDE8F883520505D51A6822F480621A6073
:100840000223DDE72877DEE74FF0FF33C8F80030FA
:10085000B768DFF84090D6E902321344BB42E2D9D0
:1008600071683846FFF76CFF4FF47A70FFF7EEFEC1
:10087000D9F8143023F4FD73C9F8143018B1C8F84E
:1008800000700446CFE70137E5E70224CFE700BF59
:100890000C000020002002402DE9F74FDFF8808196
:1008A0005D4C00220B6833FA02F502D103B0BDE8BB
:1008B000F08F012505FA02FE1EEA030300F09F8077
:1008C0004E68032706F003054FEA420C07FA0CF9BD
:1008D0006F1E012F34D8876827EA090ACF6807FA04
:1008E0000CF747EA0A078760476827EA0E0EC6F347
:1008F0000017974047EA0E074760C76827EA090EC6
:100900008F6807FA0CF747EA0E07022DC76019D166
:100910004FEAD20E00EB8E0E02F0070ADEF82070CE
:100920004FEA8A0A4FF00F0B0BFA0AFB27EA0B0B70
:100930000F6907FA0AF747EA0B07CEF8207001E0C3
:10094000032DDAD1076805FA0CF527EA09073D43BC
:1009500016F4403F056052D0D8F8605045F00105CC
:10096000C8F86050D8F8605022F0030707F18047BC
:1009700005F0010507F58037019502F0030C019D94
:10098000BD684FEA8C0C4FF00F0E0EFA0CFEB0F162
:10099000904F25EA0E0E34D0204DA84233D005F5F5
:1009A0008065A84231D005F58065A8422FD005F5B5
:1009B0008065A8422DD005F58065A84214BF0625A4
:1009C000052505FA0CF545EA0E05BD60A568F70298
:1009D00054BF9D431D43A560E568B70254BF9D43C6
:1009E0001D43E5606568B70354BF9D431D436560C3
:1009F0002568F60354BF25EA03032B432360013225
:100A000050E70025DDE70125DBE70225D9E70325CF
:100A1000D7E70425D5E700BF0004014000040048E3
:100A2000001002400369194214BF012000207047E2
:100A30000AB181617047816270470000024A936881
:100A400043F4804393607047007000400749CA68D0
:100A500022F4E0620302120403F4E063120C134375
:100A600043F0BF6343F40033CB60704700ED00E018
:100A7000144BDB68C3F3022330B5DD1E042D94BF95
:100A8000C3F1070304234FF0FF3488BF002504FAA5
:100A900003F321EA0301AC40002822EA040201FA30
:100AA00005F141EA0201AEBF00F16040064A00F0E4
:100AB0000F004FEA0113AABF00F56140135480F8FC
:100AC000003330BD00ED00E014ED00E00138B0F17E
:100AD000807F0BD24FF0E023054A5861F02182F865
:100AE00023100020072298611A6170470120704787
:100AF00000ED00E0154B98420BD103F5DE339A6B05
:100B000042F400129A639A6B22F400129A63002056
:100B100070470F4B984209D103F5DC339A6B42F4CE
:100B200080029A639A6B22F48002EFE7094B9842A5
:100B300009D103F5CC339A6B42F080429A639A6BE9
:100B400022F08042E2E70120704700BF00540040DD
:100B50000058004000780040036823F0010310B5FE
:100B60000360D1E90234026843EA042322F4F85214
:100B7000134303604B68036103680C6943F001038E
:100B80000360836823F40043836082688B696FF39A
:100B90000A022343134383601CB1836843F4004378
:100BA000836003680A6823F44013134303604368B7
:100BB0004A6923F4004313434360002010BD2DE92C
:100BC000F04702460D6895FAA5F44FF0010CB4FA0F
:100BD00084F4032735FA04F001D1BDE8F0870CFA5C
:100BE00004F32B4069D04868461E012E1ED8966833
:100BF00093FAA3FEBEFA8EFE4FEA4E0E07FA0EFEE1
:100C000026EA0E0893FAA3FE8E68BEFA8EFE4FEA1D
:100C10004E0E06FA0EF646EA08069660566826EA72
:100C2000050ECE686E434EEA06065660D66893FA05
:100C3000A3FEBEFA8EFE4FEA4E0E07FA0EFE26EA1D
:100C40000E0893FAA3FE0E69BEFA8EFE4FEA4E0E10
:100C500006FA0EF646EA08060228D6601AD1FF2BDD
:100C6000D1F814E02BD8D2F8208093FAA3F6B6FA84
:100C700086F64FF00F09B60009FA06F628EA0608CC
:100C800093FAA3F6B6FA86F6B6000EFA06F646EA28
:100C900008061662D2F800E093FAA3F6B6FA86F6D2
:100CA000760007FA06F62EEA060693FAA3F3B3FADD
:100CB00083F35B0098403043106001348AE7D2F838
:100CC00024801E0A96FAA6F9B9FA89F94FF00F0A9C
:100CD0004FEA89090AFA09F928EA090896FAA6F6F4
:100CE000B6FA86F6B6000EFA06FE4EEA0806566218
:100CF000D0E70000364BB3F8E0204FF6FF739A427E
:100D000070B50AD1334D2C6804F16043B3F5004F40
:100D10000DD9314B0C221A7070BD304BD3F8E02541
:100D20002F4B03EA8223B3F5EC3FEBD2F1E714F04B
:100D30000704EED16B68DA07EBD523F0010303F16A
:100D40007843A3F50053B3F5DC3FE2D2254B264AA6
:100D50002648D3F8FC672946FFF73FFBC04386428D
:100D6000D7D123486D68036823F008030360036844
:100D700023F001030360FFF7BDFE1C48FFF714FBDF
:100D80004FF0FF32A30003F1604303F561430134E8
:100D9000082CC3F88020C3F88021F3D1FFF7C6FBED
:100DA000FFF766FB4FF0E02300221A615A619A6157
:100DB000104A4FF020635360064B9360BFF34F8F90
:100DC000BFF36F8F1B6883F30888A847FEE700BF57
:100DD0000075FF1F00200008540000200070FF1F56
:100DE00000FCFF0300D00108FCB7010064080020EC
:100DF0000054004000ED00E0344B9A6930B515070F
:100E000013D50821D9611968314821F0060119600C
:100E1000196812F4803441F0200119603AD002219F
:100E20000170196841F00201196054070ED5274B73
:100E30002848596A048840F60705A4B2AC4237D85E
:100E400003889BB25C1C04802348C154900704D5DE
:100E5000224B1E491B78DBB28B62D10642BF1B4B73
:100E60001021D961930614D5184B3022DA611A6823
:100E700022F026021A60164A1178032920D115495A
:100E8000174809880180012111701A6822F00802B0
:100E90001A6030BD596821F4004159600D490C8039
:100EA00010490C7003210170196841F00401BBE77F
:100EB0000C4901200870596841F400415960C5E7A8
:100EC000002111701A6842F00802E1E70054004066
:100ED0005500002062080020560000205400002029
:100EE000600800205E0800200E4B0F491A6822F0AF
:100EF00001021A6043F63872DA611A6822F026029B
:100F00001A6000220A8009490A7009490A70094AD0
:100F1000012111701A680A431A601A6842F0080227
:100F20001A60704700540040620800205E080020EC
:100F3000550000205400002037B5414A136823F0C3
:100F40000F0343F004031360136803F00F03042B33
:100F5000FAD13C4A3C4CD2F8803023F48073C2F87A
:100F60008030236843F480732360FFF7D9FA00F1DF
:100F7000640523685A0506D4FFF7D2FA401B0028FF
:100F8000F7DB72B6FEE7636823F0FE4343F080436D
:100F90006360E2682D4B134043F4A85343F002030F
:100FA000E360E36843F08073E360236843F0807399
:100FB0002360FFF7B5FA00F1640523689B0106D4AE
:100FC000FFF7AEFA401B0028F7DB72B6FEE7A36816
:100FD00043F00303A360A36823F0F00343F080030E
:100FE000A360FFF79DFA00F16405A36803F00C030A
:100FF0000C2B18D155230193019BDBB9A36814482E
:1010000023F0F003A360A36823F4E063A360A36864
:1010100023F46053A360FFF741F90F20FFF73EFA76
:1010200058B172B6FEE7FFF77BFA401B0028DCDB05
:1010300072B6FEE7019B013BDDE703B030BD00BFA8
:101040000020024000700040001002400C80FFF9B8
:10105000007A030A2DE980488BB0FFF745FAFFF7C5
:101060006BFF00F07FF900F0DFF900F0ABF91E2014
:10107000FFF702F94FF400414FF09040FFF7D2FC28
:1010800000284BD1A8488021FFF7CCFC002845D18F
:10109000FFF746FA00F5FA70DFF8BCA2DFF8BC9261
:1010A000CAF8000000F000FAA04B1A6842F00102F2
:1010B0001A601A6842F080021A601A6842F0080248
:1010C0001A6099F800305BB1FFF72AFADAF80030BD
:1010D000C01A002804DB002389F80030FFF70AFE5D
:1010E000934B93F80080B8F1010FEAD1914B4FF088
:1010F0000042C3F88020BFF34F8FBFF36F8F8E4B3A
:101100008B491E888D4B1B780022B6B20A7003F003
:10111000FF0533B18A4B02221A706EE0FFF700FA26
:10112000BAE716B9864B0322F6E7864F3B78062BC3
:10113000DCB206D0772CF5D189F80050FFF7DAFD44
:101140005BE0FFF7EDF900F5F42000F59070CAF8C8
:1011500000001022294606A889F8008000F085FAD0
:10116000072E059540F2D780774BB3F8E0204FF675
:10117000FF739A4209D0754BD3F8E025744B03EA0C
:101180008223B3F5EC3FC0F0C8807878BD78FB7857
:101190003A79797997F8068048EA012808F1FF3111
:1011A000B1F5006FEDB2DBB2D2B280F0B88008F1D9
:1011B000080189B28E42C0F0B2802D0445EA006574
:1011C000154345EA032505F17843A3F50053B3F52C
:1011D000D83F00F2A680C5F30A0363B95D4CA3694A
:1011E0004CF2FA3643F04043A36132202661FFF708
:1011F0002DFA60B10724524B1C704C4A136843F01F
:10120000080313604B4B4FF000421A6059E7FFF799
:10121000FFF90028EED1012309930793EB0AA3F508
:101220008033069008934FF0030BA36943F04043CB
:10123000A36105A9266106A8FFF7C4FA40B10BF126
:10124000FF3B1BF0FF0BF0D1FFF7F4F90824D2E7C6
:1012500006464FF0FF0BA8EB06039BB2082B28BFF6
:101260000823DBB24FF0FF3206F10801019300249E
:10127000134602910198E1B2814217D3354988693A
:1012800040F0404088614CF2FA300861711900204A
:10129000CDE902320191FFF701FADDE90113039A6A
:1012A000044638B3FFF7C6F90924A4E7E000A0F12B
:1012B0002001C0F1200C2BFA0CFC0BFA01F141EAE1
:1012C0000C0123EA0101029B23440BFA00FC22EAF1
:1012D0000C0CFA5CA0F1200EC0F1200302FA0EFE05
:1012E00022FA03F34EEA0303824042EA0C020B4364
:1012F0000134BFE7D1E900018B4208BF824203D02D
:10130000FFF798F90A2476E70836B6B2B045A2D8B6
:10131000FFF790F96FE703246DE70B246BE70424D4
:1013200069E7052467E700BF000400480054004057
:101330005500002000E100E0600800205E08002069
:1013400054000020560000200075FF1F0070FF1F92
:1013500000FCFF0300200240500000202C00002071
:1013600072B6FEE700B589B01422002103A800F090
:101370007CF9124B1248DA6C42F00202DA64DA6C41
:1013800002F002020192019ADA6C42F00102DA6480
:10139000DB6C03F00103029300220221029BFFF7A2
:1013A00047FB02220123CDE903230548002303A9BB
:1013B000CDE90533FFF770FA09B000BD0010024017
:1013C0000004004800B5102289B00DEB0200002196
:1013D00000F04BF9124BDA6C42F00202DA64DA6C7C
:1013E00002F002020192019ADA6C42F00102DA6420
:1013F000DB6C03F001030293029B4FF40043039361
:1014000003A901234FF090400593FFF745FA80238D
:101410000448039303A9FFF73FFA09B000BD00BFDA
:1014200000100240000400480C4A08B50C4B136041
:101430004FF4807393804FF0FF312023C2E90413EF
:1014400080239361104601231362FEF773FF18B1E6
:10145000BDE80840FFF784BF08BD00BF6408002056
:10146000003002400268084B9A4282B00AD1A3F5CC
:1014700000539A6C42F480529A649B6C03F480533C
:101480000193019B02B07047003002400268044B98
:101490009A4201BF034A936C23F4805393647047CC
:1014A00000300240001002402DE9F04190B0404C65
:1014B0001C22002109A800F0D8F81822002103A856
:1014C00000F0D3F8D4F8883023F44053C4F88830BF
:1014D000E36C43F00103E364E36C03F00103029364
:1014E000029BE36C43F00203E364E36C03F002034A
:1014F000019301260025019B07964FF400434FF00E
:101500000208042703A94FF09040CDE90338CDE944
:1015100005560897FFF753FB802303A92548CDE91B
:101520000338CDE90556CDE90767FFF748FB224AA6
:10153000536843F400335360A36D204A43F400130F
:10154000A365A36D03F400130093009BD3681C4BA9
:1015500083F81F534FF000411960D26883F820537D
:101560005E60184B0995A4F5DE34CDE90A3509A96A
:10157000A8232046CDE90D350C950F95FFF7ECFA21
:10158000636843F000736360E3686FF34A03E360EA
:10159000E36823F40043E360236823F4002323601B
:1015A000236823F40033236010B0BDE8F08100BF4E
:1015B00000100240000400480000014000ED00E07F
:1015C00000E100E0651E5020FEE7FEE7FEE7FEE7D3
:1015D000FEE7704770477047FEF796BFFFF70CBCF9
:1015E000FFF782BC0B4B1A6E42F0010282B01A6602
:1015F0001A6E02F001020092009A9A6D42F0805237
:101600009A659B6D03F080530193019B02B0FFF735
:1016100015BA00BF001002400D4885460D480E491E
:101620000E4A002302E0D458C4500433C4188C423C
:10163000F9D30B4A0B4C002301E013600432A242A1
:10164000FBD3FEF70FFE00F019F8FFF703FDFEE7EE
:10165000008000200000002030000020E416000878
:101660003000002088080020FEE702440346934231
:1016700000D1704703F8011BF9E7000070B50D4B6E
:101680000D4C00261D1BB6EBA50F09D100F01AF872
:101690000A4C0B4B00261D1BB6EBA50F05D170BDE8
:1016A00054F8043B98470136EDE754F8043B98475B
:1016B0000136F1E7DC160008DC160008DC1600082D
:1016C000E0160008F8B500BFF8BC08BC9E4670479D
:1016D000F8B500BFF8BC08BC9E4670474102000840
:1016E000190200080024F4000100000010000000AE
:1016F00000000000000000000000000000000000EA
:1017000001000000000000000000000000000000D8
:1017100001000000FFFFFFFFFFFFFFFFFFFFFFFFD4
:10172000FFFFFFFFFFFFFFFFFFFFFFFFFFFFFFFFC9
:10173000FFFFFFFFFFFFFFFFFFFFFFFFFFFFFFFFB9
:10174000FFFFFFFFFFFFFFFFFFFFFFFFFFFFFFFFA9
:10175000FFFFFFFFFFFFFFFFFFFFFFFFFFFFFFFF99
:101FF000FFFFFFFFFFFFFFFFFFFFFFFFFFFFFF01EF
:10200000F87F00207D7B0008457A0008477A0008A9
:10201000497A00084B7A00084D7A00080000000059
:102020000000000000000000000000004F7A0008DF
:10203000517A000800000000537A0008557A000821
:10204000CD7B0008CD7B0008CD7B0008CD7B000850
:10205000CD7B0008CD7B0008CD7B0008CD7B000840
:10206000CD7B0008CD7B0008CD7B0008597A0008A5
:10207000657A0008797A0008857A0008CD7B000827
:10208000CD7B000800000000CD7B0008CD7B000860
:10209000CD7B0008CD7B0008CD7B0008CD7B000800
:1020A000CD7B0008F9F90008CD7B0008CD7B000846
:1020B000CD7B0008CD7B0008CD7B0008877A000827
:1020C0008B7A0008CD7B0008CD7B0008CD7B000813
:1020D000CD7B0008CD7B0008CD7B0008917A0008FD
:1020E000CD7B0008CD7B0008CD7B0008CD7B0008B0
:1020F000CD7B0008CD7B0008CD7B000800000000F0
:1021000000000000CD7B000800000000CD7B00082F
:10211000CD7B000800000000CD7B0008CD7B0008CF
:10212000CD7B0008CD7B0008CD7B0008CD7B00086F
:10213000CD7B00080000000000000000CD7B0008FF
:10214000CD7B0008CD7B00080000000000000000EF
:10215000000000000000000000000000000000007F
:10216000000000000000000000000000CD7B00081F
:10217000CD7B00080000000000000000000000000F
:1021800000000000CD7B00080000000000000000FF
:10219000000000000000000000000000000000003F
:1021A0000000000000000000CD7B0008CD7B00088F
:1021B000CD7B0008CD7B0008CD7B0008000000002F
:1021C00000000000CD7B00080000000000000000BF
:1021D000CD7B0008CD7B000800000000000000005F
:1021E00081F0004102E000BF83F0004330B54FEAC8
:1021F00041044FEA430594EA050F08BF90EA020F35
:102200001FBF54EA000C55EA020C7FEA645C7FEAC7
:10221000655C00F0E2804FEA5454D4EB5555B8BFEA
:102220006D420CDD2C4480EA020281EA030382EA5B
:10223000000083EA010180EA020281EA0303362DED
:1022400088BF30BD11F0004F4FEA01314FF4801CC0
:102250004CEA113102D0404261EB410113F0004FD2
:102260004FEA03334CEA133302D0524263EB430389
:1022700094EA050F00F0A780A4F10104D5F1200E27
:102280000DDB02FA0EFC22FA05F2801841F1000182
:1022900003FA0EF2801843FA05F359410EE0A5F156
:1022A00020050EF1200E012A03FA0EFC28BF4CF087
:1022B000020C43FA05F3C01851EBE37101F000453D
:1022C00007D54FF0000EDCF1000C7EEB00006EEB4A
:1022D0000101B1F5801F1BD3B1F5001F0CD34908D4
:1022E0005FEA30004FEA3C0C04F101044FEA44522B
:1022F00012F5800F80F09A80BCF1004F08BF5FEAB2
:10230000500C50F1000041EB045141EA050130BD91
:102310005FEA4C0C404141EB0101013C28BFB1F5A3
:10232000801FE9D291F0000F04BF01460020B1FAEE
:1023300081F308BF2033A3F10B03B3F120020CDAC1
:102340000C3208DD02F1140CC2F10C0201FA0CF09F
:1023500021FA02F10CE002F11402D8BFC2F1200C04
:1023600001FA02F120FA0CFCDCBF41EA0C019040BA
:10237000E41AA2BF01EB0451294330BD6FEA040403
:102380001F3C1CDA0C340EDC04F11404C4F12002EE
:1023900020FA04F001FA02F340EA030021FA04F300
:1023A00045EA030130BDC4F10C04C4F1200220FA57
:1023B00002F001FA04F340EA0300294630BD21FA95
:1023C00004F0294630BD94F0000F83F4801306BF5B
:1023D00081F480110134013D4EE77FEA645C18BF4F
:1023E0007FEA655C29D094EA050F08BF90EA020FE6
:1023F00005D054EA000C04BF1946104630BD91EADE
:10240000030F1EBF0021002030BD5FEA545C05D1E0
:102410004000494128BF41F0004130BD14F580041F
:102420003CBF01F5801130BD01F0004545F0FE4193
:1024300041F470014FF0000030BD7FEA645C1ABFC8
:10244000194610467FEA655C1CBF0B46024650EAFF
:10245000013406BF52EA033591EA030F41F400212B
:1024600030BD00BF90F0000F04BF0021704730B5B1
:102470004FF4806404F132044FF000054FF0000186
:1024800050E700BF90F0000F04BF0021704730B547
:102490004FF4806404F1320410F0004548BF40421C
:1024A0004FF000013EE700BF42004FEAE2014FEA71
:1024B00031014FEA02701FBF12F07F4393F07F4F4C
:1024C00081F06051704732F07F4208BF704793F04F
:1024D0007F4F04BF41F40021704730B54FF4607462
:1024E00001F0004521F000411CE700BF50EA010265
:1024F00008BF704730B54FF000050AE050EA01020E
:1025000008BF704730B511F0004502D5404261EB7D
:1025100041014FF4806404F132045FEA915C3FF4BE
:10252000D8AE4FF003025FEADC0C18BF03325FEA5B
:10253000DC0C18BF033202EBDC02C2F1200300FA0C
:1025400003FC20FA02F001FA03FE40EA0E0021FA31
:1025500002F11444BDE600BF70B54FF0FF0C4CF41F
:10256000E06C1CEA11541DBF1CEA135594EA0C0FD1
:1025700095EA0C0F00F0DEF82C4481EA030621EA0C
:102580004C5123EA4C5350EA013518BF52EA033547
:1025900041F4801143F4801338D0A0FB02CE4FF0F9
:1025A0000005E1FB02E506F00042E0FB03E54FF029
:1025B0000006E1FB03569CF0000F18BF4EF0010E21
:1025C000A4F1FF04B6F5007F64F5407404D25FEA1D
:1025D0004E0E6D4146EB060642EAC62141EA5551D0
:1025E0004FEAC52040EA5E504FEACE2EB4F1FD0C12
:1025F00088BFBCF5E06F1ED8BEF1004F08BF5FEA90
:10260000500E50F1000041EB045170BD06F0004641
:1026100046EA010140EA020081EA0301B4EB5C04EE
:10262000C2BFD4EB0C0541EA045170BD41F48011E6
:102630004FF0000E013C00F3AB8014F1360FDEBF0B
:10264000002001F0004170BDC4F10004203C35DAE7
:102650000C341BDC04F11404C4F1200500FA05F36A
:1026600020FA04F001FA05F240EA020001F000420B
:1026700021F0004110EBD37021FA04F642EB060181
:102680005EEA430E08BF20EAD37070BDC4F10C04AB
:10269000C4F1200500FA04F320FA05F001FA04F26F
:1026A00040EA020001F0004110EBD37041F100015B
:1026B0005EEA430E08BF20EAD37070BDC4F1200566
:1026C00000FA05F24EEA020E20FA04F301FA05F2CE
:1026D00043EA020321FA04F001F0004121FA04F276
:1026E00020EA020000EBD3705EEA430E08BF20EA46
:1026F000D37070BD94F0000F0FD101F00046400080
:1027000041EB010111F4801F08BF013CF7D041EA01
:10271000060195F0000F18BF704703F00046520005
:1027200043EB030313F4801F08BF013DF7D043EAD6
:102730000603704794EA0C0F0CEA135518BF95EA8C
:102740000C0F0CD050EA410618BF52EA4306D1D113
:1027500081EA030101F000414FF0000070BD50EA32
:10276000410606BF1046194652EA430619D094EABC
:102770000C0F02D150EA013613D195EA0C0F05D1A6
:1027800052EA03361CBF104619460AD181EA0301FA
:1027900001F0004141F0FE4141F470014FF00000B2
:1027A00070BD41F0FE4141F4780170BD70B54FF04D
:1027B000FF0C4CF4E06C1CEA11541DBF1CEA1355CD
:1027C00094EA0C0F95EA0C0F00F0A7F8A4EB0504AF
:1027D00081EA030E52EA03354FEA013100F08880A6
:1027E0004FEA03334FF0805545EA131343EA12636F
:1027F0004FEA022245EA111545EA10654FEA002624
:102800000EF000419D4208BF964244F1FD0404F5DC
:10281000407402D25B084FEA3202B61A65EB030538
:102820005B084FEA32024FF480104FF4002CB6EBF5
:10283000020E75EB030E22BFB61A754640EA0C0075
:102840005B084FEA3202B6EB020E75EB030E22BFB5
:10285000B61A754640EA5C005B084FEA3202B6EBF6
:10286000020E75EB030E22BFB61A754640EA9C00B5
:102870005B084FEA3202B6EB020E75EB030E22BF85
:10288000B61A754640EADC0055EA060E18D04FEA43
:10289000051545EA16754FEA06164FEAC30343EAE3
:1028A00052734FEAC2025FEA1C1CC0D111F4801FB0
:1028B0000BD141EA00014FF000004FF0004CB6E7A9
:1028C00011F4801F04BF01430020B4F1FD0C88BF48
:1028D000BCF5E06F3FF6AFAEB5EB030C04BFB6EB53
:1028E000020C5FEA500C50F1000041EB045170BD46
:1028F0000EF0004E4EEA113114EB5C04C2BFD4EB73
:102900000C0541EA045170BD41F480114FF0000EF6
:10291000013C90E645EA060E8DE60CEA135594EA72
:102920000C0F08BF95EA0C0F3FF43BAF94EA0C0F75
:102930000AD150EA01347FF434AF95EA0C0F7FF4EA
:1029400025AF104619462CE795EA0C0F06D152EA3E
:1029500003353FF4FDAE1046194622E750EA410622
:1029600018BF52EA43067FF4C5AE50EA41047FF433
:102970000DAF52EA43057FF4EBAE12E780F0004062
:1029800002E000BF81F0004142001FBF5FEA410347
:1029900092EA030F7FEA226C7FEA236C6AD04FEA47
:1029A0001262D2EB1363C1BFD2184140484041408C
:1029B000B8BF5B42192B88BF704710F0004F40F43E
:1029C000000020F07F4018BF404211F0004F41F45A
:1029D000000121F07F4118BF494292EA030F3FD026
:1029E000A2F1010241FA03FC10EB0C00C3F1200339
:1029F00001FA03F100F0004302D5494260EB4000C8
:102A0000B0F5000F13D3B0F1807F06D340084FEA32
:102A1000310102F10102FE2A51D2B1F1004F40EB27
:102A2000C25008BF20F0010040EA0300704749008F
:102A300040EB0000013A28BFB0F5000FEDD2B0FA2C
:102A400080FCACF1080CB2EB0C0200FA0CF0AABF4F
:102A500000EBC25052421843BCBFD04018437047ED
:102A600092F0000F81F4000106BF80F400000132F3
:102A7000013BB5E74FEA41037FEA226C18BF7FEACA
:102A8000236C21D092EA030F04D092F0000F08BF0C
:102A90000846704790EA010F1CBF0020704712F0F3
:102AA0007F4F04D1400028BF40F00040704712F132
:102AB00000723CBF00F50000704700F0004343F097
:102AC000FE4040F4000070477FEA226216BF0846CD
:102AD0007FEA23630146420206BF5FEA412390EA90
:102AE000010F40F4800070474FF0000304E000BF86
:102AF00010F0004348BF40425FEA000C08BF704737
:102B000043F0964301464FF000001CE050EA0102FA
:102B100008BF70474FF000030AE000BF50EA01020F
:102B200008BF704711F0004302D5404261EB4101FC
:102B30005FEA010C02BF84460146002043F0B64321
:102B400008BFA3F18053A3F50003BCFA8CF2083A46
:102B5000A3EBC25310DB01FA02FC634400FA02FC4F
:102B6000C2F12002BCF1004F20FA02F243EB020056
:102B700008BF20F00100704702F1200201FA02FCB8
:102B8000C2F1200250EA4C0021FA02F243EB0200AB
:102B900008BF20EADC707047000000000000000061
:102BA00001F0FF01102A2BDB10F0070F08D010F8FE
:102BB000013B013A8B422DD010F0070F42B3F6D102
:102BC000F0B441EA012141EA014122F007047FF01B
:102BD00000070023F0E80256083C85EA010586EA72
:102BE000010685FA47F5A3FA87F586FA47F6A5FAAE
:102BF00087F68EB9EED1F0BC01F0FF0102F00702BA
:102C000032B110F8013B013A83EA010313B1F8D164
:102C10000020704701387047002D06BF3546033845
:102C2000073815F0010F07D1013015F4807F02BF7E
:102C3000013015F4C03F0130F0BC0138704700BFCF
:102C4000034613F8012B002AFBD1181A01387047EC
:102C50004FF0FF3C06E000BF4FF0010C02E000BF68
:102C60004FF0010C4DF804CD4FEA410C7FEA6C5C4B
:102C70004FEA430C18BF7FEA6C5C1BD001B050EAEE
:102C8000410C0CBF52EA430C91EA030F02BF90EAD9
:102C9000020F0020704710F1000F91EA030F58BF98
:102CA000994208BF90422CBFD8176FEAE37040F0FA
:102CB000010070474FEA410C7FEA6C5C02D150EA98
:102CC000013C07D14FEA430C7FEA6C5CD6D152EA53
:102CD000033CD3D05DF8040B704700BF8446104618
:102CE00062468C461946634600E000BF01B5FFF717
:102CF000B7FF002848BF10F1000F01BD4DF808EDE7
:102D0000FFF7F4FF0CBF012000205DF808FB00BFB7
:102D10004DF808EDFFF7EAFF34BF012000205DF811
:102D200008FB00BF4DF808EDFFF7E0FF94BF01205E
:102D300000205DF808FB00BF4DF808EDFFF7CEFF5F
:102D400094BF012000205DF808FB00BF4DF808ED9E
:102D5000FFF7C4FF34BF012000205DF808FB00BF6F
:102D60004FEA410C7FEA6C5C02D150EA013C0AD187
:102D70004FEA430C7FEA6C5C02D152EA033C02D179
:102D80004FF0000070474FF0010070474FEA4102DA
:102D900012F5001215D211D56FF47873B3EB6252AD
:102DA00012D94FEAC12343F0004343EA505311F0D4
:102DB000004F23FA02F018BF404270474FF0000066
:102DC000704750EA013005D111F0004008BF6FF0A4
:102DD000004070474FF00000704700BF0348044BAD
:102DE000834202D0034B03B1184770472C050020E3
:102DF0002C050020000000000548064B1B1AD90FC7
:102E000001EBA301491002D0034B03B118477047EF
:102E10002C0500202C0500200000000010B5064CF9
:102E2000237843B9FFF7DAFF044B13B10448AFF33B
:102E300000800123237010BD2C050020000000003D
:102E40006448010808B5054B1BB105490548AFF3B7
:102E50000080BDE80840FFF7CFBF00BF00000000C2
:102E60003005002064480108034AD2F8883043F452
:102E70007003C2F88830704700ED00E030B5CC0D2B
:102E800004F004041430C1F30451035907258D40A4
:102E900023EA05038A401343035130BD806800F0E4
:102EA000010070478068C0F38000704737B5002389
:102EB00001930446002800F0E180C56D25B903F0B8
:102EC000BFFD256684F8585023689A68900041BF7A
:102ED0009A6822F0204222F03F029A609A68D1005C
:102EE00040F1A3809A68D20000F1B680E26D42F012
:102EF0001002E265226E42F00102226601211846AC
:102F0000FFF7D0FFE26D02F01002024340F0B28002
:102F1000E26D22F4817242F00202E2651846FFF788
:102F2000BDFF80B94FF0A040FFF7B8FF02465448FC
:102F3000FFF7B4FF024306D152486568826822F465
:102F40007C122A438260E568E26B94F824002A43ED
:102F5000A5682A43657F012842EA453242EA0042D9
:102F600002BFA06A00F1FF3042EA4042E06A20B1AD
:102F7000256B00F4787028430243DD6842482840FE
:102F80001043D8601A69606B22F0406202431A61F4
:102F90001846FFF787FF9A6802F0080202432CD117
:102FA000D86894F83820257F520020F4804020F023
:102FB000020042EA853202432069DA601A69002879
:102FC0004CD042F480321A61D3F8C0206FF30D0266
:102FD0000243C3F8C02094F84020012A46D1D4E926
:102FE000112518692A436FF38A000243E06C0243FB
:102FF000206D024342F001021A616269012A05BF95
:10300000186B226A1A6B02F1FF3206BF20F00F0024
:10301000024322F00F021A63E36D23F0030343F02F
:103020000103E365084603B030BD9A68174922F0F2
:10303000104222F03F0242F080529A60144A126815
:10304000B2FBF1F2013252000192019A002A3FF4E0
:1030500049AF019A013AF7E7002150E722F48032A4
:103060001A61D3F8C0206FF30D02B2E71A6922F09B
:103070000102C1E7E36D43F01003E3650121D1E7ED
:1030800000010050000300500740F0FF400D030016
:10309000000000207047704708B5806AFFF7FBFF0B
:1030A00008BD7047836ADA6D12F0500F10B5DA6D03
:1030B00021D142F40072DA651A681168080716D542
:1030C000D16811F4406F0ED1D26812F4005F0AD1BA
:1030D000DA6D22F48072DA65DA6DD1045EBFDA6DE2
:1030E00042F00102DA651846FFF7D4FF10BDD2683E
:1030F00012F0020FEBE7D20603D51846FFF7D1FF17
:10310000F4E75B6DBDE810405B6B1847806A08B55B
:10311000C36D43F04003C365036E43F004030366CD
:10312000FFF7BFFF08BD0000F7B50023019390F83B
:103130005830012B05460E4600F0A4810468012397
:1031400080F858302046FFF7ADFE002840F094810B
:103150004A683368910901F00C0104F1300702F06C
:103160001F0278584FF01F0CC3F3846393400CFA8E
:1031700002F220EA020213437B502046FFF792FE40
:10318000A26802F0080202433BD1B3683168B3F190
:10319000004F73D12046FFF771FE636943F000438F
:1031A00063613769E0683268042F04F160036DD011
:1031B000716953F827C0C0F3C10040008140B24894
:1031C00002F0F8420CEA0000104341EA000242F02B
:1031D000004243F827203169B06953F8212022F0DA
:1031E0008072024343F82120317F30694F1E53F82B
:1031F00020207942794122F0007242EA416243F88C
:1032000020202046FFF74AFE002840F0A480F06806
:103210009E4933688842C3F3120240F09680D4F886
:10322000B0101143C4F8B010002A00F09E8093FA49
:10323000A3F23AB1B2FA82F2013202F01F02092A75
:1032400000F2B58093FAA3F1B1FA81F10131890658
:1032500001F0F84193FAA3F0B0FA80F0013000F0E9
:103260001F00012282400A4393FAA3F1B1FA81F1CF
:10327000013101F01F0101EB410186E01A462046B1
:10328000FFF7FCFD636923F0004389E7C2F31200F6
:10329000216E216E00283BD1C2F38462C1F38461A8
:1032A000914202BF226E22F000422266626E3268B4
:1032B000616EC2F31200002831D1C2F38462C1F3FF
:1032C0008461914202BF626E22F0004262669A6897
:1032D00032689968C2F3120040BBC2F38462C1F342
:1032E0008461914202BF9A6822F000429A60DA68D3
:1032F0003268D968C2F31200F8B9C2F38462C1F32C
:103300008461914202BFDA6822F00042DA6078E715
:1033100092FAA2F2002AC9D0B2FA82F2BEE792FA79
:10332000A2F2002AD3D0B2FA82F2C8E792FAA2F24D
:10333000002ADCD0B2FA82F2D1E792FAA2F2002A95
:103340003FF45FAFB2FA82F2D9E7D4F8B03023EAA3
:103350000203C4F8B03033684D4A134245D100200F
:10336000002385F8583003B0F0BD9A0E013202F008
:103370001F03092B4FF001014FEA82620CD89940DC
:1033800002F0F8420A4303EB4301090511432046CA
:10339000B268FFF773FDDEE799400A3B02F0F8429E
:1033A00003EB43030A43190541F00071EEE793FA7A
:1033B000A3F1B1FA81F10131890601F0F84193FAE4
:1033C000A3F0B0FA80F0013000F01F00012282402B
:1033D0000A4393FAA3F1B1FA81F1013101F01F011F
:1033E0000A3901EB41010905DEE72A4A2A4E9168B4
:1033F000B34201F0E07002D0284EB3421BD10E025E
:10340000ADD4B4F1A04FAAD1224A936823F0E0735F
:10341000034343F400039360214B1A68214BB2FB32
:10342000F3F20C2302FB03330193019B002B96D094
:10343000019B013BF8E71C4EB3420CD1C9018ED46D
:103440001A4B9C428BD0936823F0E073034343F004
:103450008073936083E7164EB34280D14B023FF5F1
:103460007EAF124B9C423FF47AAF936823F0E07337
:10347000034343F48003ECE7EA6D42F02002EA657F
:1034800018466DE702206EE700F0FF0300007F4062
:103490000000088000030050000021C31000C0900D
:1034A00000000020400D0300000052C70001005042
:1034B000000084CB036870B504461846FFF7F2FCA1
:1034C0009A6802F00802024301D1002070BDDA6858
:1034D00092013BD5627F012A38D1227F012A35D162
:1034E000264A19684E0625D540221A600121184641
:1034F000FFF7D8FC50B19A68950707D49A6822F074
:10350000004222F03F0242F010029A6001291FD1CE
:10351000042500F00DFB064623689B682B42D4D09F
:1035200000F006FB801B0528F6D923689B682B4218
:10353000F2D001E0013AD4D1E36D43F01003E3652A
:10354000236E43F0010323660120BFE70229CED199
:103550009A6810070AD59A68920707D49A6822F0E9
:10356000004222F03F0242F020029A60022903D07A
:103570000329CDD10C25CCE70825CAE7010040A3DB
:10358000026838B504461046FFF788FC08B10020F1
:1035900038BD9168184B194209D0E36D43F0100310
:1035A000E365236E43F0010323660120F0E793688F
:1035B00023F0004323F03F0343F00103936000F046
:1035C000B7FA054622681368DB07E0D41046FFF718
:1035D00065FC38B9936823F0004323F03F0343F0C0
:1035E0000103936000F0A4FA401B0228EAD9236883
:1035F0001B68DA07E6D4D0E73F000080334B2DE9A3
:10360000F041044600689F68FFF74CFC0D461646E3
:103610008046002857D194F85830012B53D001230D
:1036200007F01F0784F8583040F22123FB4013F0C5
:10363000010345D02046FFF7A3FF00283CD1E36DEE
:10364000216823F4706323F0010343F48073E3657E
:103650001F4B994200D11FB9E36D23F48013E3653A
:10366000E36D606D13F480531CBF236E23F00603DB
:103670002366184BC362184B0363184B43631C2328
:103680000B60002384F858304B6843F010034B6004
:10369000CB6843F00103CB602A463346403101F04A
:1036A00089FA2268936823F0004323F03F0343F034
:1036B00004039360BDE8F08184F858800120F9E7A5
:1036C00084F85830FAE70220F4E700BF0003005006
:1036D00000010050A5300008993000080D310008A5
:1036E000026838B5044610469368FFF7D7FB08B95F
:1036F000002038BD9907FBD4936803F00D03012B1C
:1037000019D1936823F0004323F03F0343F00203F1
:1037100093600323136000F00BFA054623689B684F
:10372000DB07E5D500F004FA401B0228F6D9236830
:103730009B68DA07F2D5E36D43F01003E365236E6F
:1037400043F0010323660120D3E7000038B50446A7
:10375000002800F0A580C36D43F00203C365032178
:10376000FFF7A8FE2268D36843F40013D360002853
:1037700000F08C80012523685A686FF30A025A60B2
:1037800040F2FF721A609A6822F0A0429A609A682A
:1037900042F000529A60DA6822F0FF4222F4FF02FF
:1037A00022F4FF4222F07B02DA60DA6842F0004243
:1037B000DA601A696FF30A021A615A6902F08042EC
:1037C0005A619A6902F078429A611A6A02F0F0220C
:1037D0001A625A6A02F0FF225A629A6A02F0FF22C3
:1037E0009A62196B2F4A0A401A635A6B2E490A4093
:1037F0005A639A6B0A409A63DA6B22F4FB6222F0F6
:103800000702DA63196E294A11401966596E114090
:103810005966996E11409966D96E0A40DA66D3F8F6
:10382000A02023490A40C3F8A020D3F8A4200A40CE
:10383000C3F8A420D3F8B0200A40C3F8B020D3F8CE
:10384000B42022F07F12C3F8B4204FF0A040FFF75D
:1038500025FB03461748FFF721FB03430DD1164A0A
:10386000936823F0FF7323F4F73323F48F7323F06B
:1038700001039360204603F041F90023C4E91933A2
:10388000236684F85830E365284638BD2046FFF7A4
:1038900027FF054600287FF46DAF0123E3656AE743
:1038A0000125F1E7300882E0200882E000F0FF0304
:1038B0000000F8FF000100500003005038B590F8F8
:1038C0005830012B054637D0012380F858300321AA
:1038D000FFF7F0FD044628B10124002385F8583095
:1038E000204638BD2A68686DD36823F00103D36091
:1038F00090F82530022B07D101F09CF9044618B14D
:10390000EB6D43F04003EB652A68536823F0100326
:10391000536028466CB9FFF7E3FE04460028DBD16C
:10392000EB6D23F4885323F0010343F00103EB65AF
:10393000D3E7FFF7D5FED0E70224D1E7806800F097
:10394000010070478068C0F38000704737B50023DE
:10395000019390F85830012B04460D463DD00123C9
:1039600080F85830FFF7BCFEE36D002832D123F415
:10397000885323F00203226843F00203E36593684F
:1039800023F0404323F03F0305F080452B4343F0F1
:10399000004393609368002B12DA019B013301937B
:1039A00001990F4B9942F5D9E36D23F0120343F0CF
:1039B0001003E365002384F85830012003B030BDC4
:1039C000E36D23F0030343F00103E365002384F870
:1039D0005830F3E743F01003F7E70220EEE700BFAB
:1039E00001DE040070B590F85820012A9CB003460F
:1039F00056D005680022B5F1A04F189219920ED149
:103A00002848FFF79FFF02462846FFF79BFF104319
:103A10000ED0DA6D42F02002DA65012028E0C16D97
:103A200080F8582041F02001C16501201CB070BD14
:103A30000C681D4A04B390684E6820F4604030431F
:103A400093F8386040EA463090602846FFF776FFEA
:103A500005461448FFF772FF054308D1896890684E
:103A60000C4320F4716121F00F010C43946000209D
:103A7000002283F85820D9E7916821F460419160D1
:103A80002846FFF75BFF01460648FFF757FF014353
:103A9000EDD1916821F4716121F00F019160E6E7A9
:103AA0000220C3E7000100500003005038B50F4B5F
:103AB0001A6805460AB9012038BD4FF47A73B3FB82
:103AC000F2F30B4A1068B0FBF3F001F02BFA044656
:103AD0000028F0D10F2DEED8024629464FF0FF30D6
:103AE00001F0D2F9034B20461D60E5E704000020F9
:103AF000000000200800002010B5032001F0B2F9FA
:103B00000F20FFF7D3FF044618B903F0C7FF204684
:103B100010BD0124FBE70000034A0449136809684B
:103B20000B441360704700BF4805002004000020CC
:103B3000014B1868704700BF4805002038B504469F
:103B4000FFF7F6FF631C1CBF054B1B68054618BF3B
:103B5000E418FFF7EDFF401BA042FAD338BD00BFC9
:103B6000040000202DE9F341044640B30368D9075F
:103B700014D423689A075BD42368190700F1A48042
:103B800023685A0700F1CB8023689A0600F134813C
:103B9000E369002B40F06281002028E0A24DAB6871
:103BA000EA6803F00C030C2B0BD102F00303032B88
:103BB00009D12B689B03DCD56368002BD9D1012088
:103BC00015E0082BF4E76368B3F5803F12D12B684A
:103BD00043F480332B60FFF7ABFF06462B689F034F
:103BE000C7D4FFF7A5FF801B6428F7D9032002B0D4
:103BF000BDE8F081B3F5A02F04D12B6843F48023F6
:103C00002B60E4E72A6822F480322A602A6822F4D2
:103C100080222A60002BDED1FFF78AFF06462B6840
:103C20009903A6D5FFF784FF801B6428F7D9DDE749
:103C30007D4DAB68EA6803F00C030C2B17D102F042
:103C40000303022B15D12B685A0502D5E368002B1C
:103C5000B5D06B68226923F0FE4343EA02636B60D0
:103C6000724B1868FFF722FF002885D0A7E7042BC6
:103C7000E8E7E368BBB12B6843F480732B60FFF780
:103C800057FF06462B685B0507D56B68226923F052
:103C9000FE4343EA02636B606EE7FFF749FF801B58
:103CA0000228EFD9A2E72B6823F480732B60FFF77B
:103CB0003FFF06462B685F057FF55EAFFFF738FFD5
:103CC000801B0228F6D991E76369574D9BB1D5F85F
:103CD000943043F00103C5F89430FFF729FF0646FE
:103CE000D5F894309B073FF54BAFFFF721FF801BC2
:103CF0000228F5D97AE7D5F8943023F00103C5F806
:103D00009430FFF715FF0646D5F894309F077FF5EE
:103D100037AFFFF70DFF801B0228F5D966E7424D4C
:103D2000AB6DD80027D4AB6D43F08053AB65AB6D62
:103D300003F080530193019B01273D4E3368D90561
:103D40001BD5A368012B29D1D5F8903043F001038E
:103D5000C5F89030FFF7ECFE41F288368046D5F882
:103D600090309B0741D5002F3FF40EAFAB6D23F091
:103D70008053AB6508E70027DFE7336843F48073BF
:103D80003360FFF7D5FE80463368DA05D9D4FFF7F4
:103D9000CFFEA0EB08000228F6D927E7052B06D1B5
:103DA000D5F8903043F00403C5F89030CCE7D5F84F
:103DB000902022F00102C5F89020D5F8902022F042
:103DC0000402C5F89020002BC4D1FFF7B1FE41F2E8
:103DD00088368046D5F890309907C4D5FFF7A8FEFD
:103DE000A0EB0800B042F5D900E7FFF7A1FEA0EB79
:103DF0000800B042B3D9F9E6A3690B4DD3B1D5F8A9
:103E0000983043F00103C5F89830FFF791FE06465D
:103E1000D5F898309B073FF5BBAEFFF789FE801BB6
:103E20000228F5D9E2E600BF001002400800002099
:103E300000700040D5F8983023F00103C5F89830A1
:103E4000FFF776FE0646D5F898309F077FF5A0AEBF
:103E5000FFF76EFE801B0228F5D9C7E6484DAA6819
:103E600002F00C020C2A57D0022B2B6823F080732F
:103E70002B603AD1FFF75CFE06462B6899012ED4E1
:103E8000EA68404B1340226A1343A26A43EA0223C2
:103E9000E26A43EAC263626A013A43EA0213226BAE
:103EA0005208013A43EA4253626B5208013A43EA2C
:103EB0004263EB602B6843F080732B60EB6843F048
:103EC0008073EB60FFF734FE04462B689A013FF5E0
:103ED00063AEFFF72DFE001B0228F6D986E6FFF73A
:103EE00027FE801B0228C8D980E6EB6823F0030375
:103EF000EB60EB6823F0887323F48033EB60FFF70B
:103F000017FE04462B689B017FF546AEFFF710FEB7
:103F1000001B0228F6D969E6012B3FF450AEEB688E
:103F2000226A03F0030191427FF449AE616A03F013
:103F3000F0020139B2EB011F7FF441AEA16A03F434
:103F4000FE42B2EB012F7FF43AAEE16A03F0784211
:103F5000B2EBC16F7FF433AE226B520803F4C001A1
:103F6000013AB1EB425F7FF42AAE626B5208013A2C
:103F700003F0C063B3EB426F14BF0120002036E6AC
:103F8000001002400C809F01174B9A6802F00C024F
:103F9000042A23D09A6802F00C02082A20D09A68DA
:103FA00002F00C020C2A1DD1D968DA68D868DB68E7
:103FB00001F00301C3F341630329C2F30312C0F309
:103FC000062003F101030CBF084909495B000132D7
:103FD000B1FBF2F25043B0FBF3F070470448704776
:103FE00002487047002070470010024000127A001B
:103FF0000024F4002DE9F84306460D4610B90120CF
:10400000BDE8F8836D4A136803F00F038B4245D374
:10401000316811F001084CD13268910740F1A78056
:10402000674B12F0040F1EBF996841F4E06199607C
:10403000120741BF9A6822F47C5242F4E0629A600F
:104040009A68B16822F0F0020A439A605B4C2368D8
:1040500003F00F03AB4200F293803268584C12F029
:10406000040F40F0A380130706D5A368326923F438
:10407000605343EAC203A360FFF786FFA368514A77
:10408000C3F30313D35C03F01F03D8404E4B1860F7
:104090004E4B1868BDE8F843FFF708BD136823F0DE
:1040A0000F030B431360136803F00F038B42A6D179
:1040B000AEE77768424C032F236849D19B019ED518
:1040C000E368E26803F00303032BE3680CBF404896
:1040D0004048C2F30312C3F306230132B0FBF2F2ED
:1040E0005343E268C2F3416201325200B3FBF2F380
:1040F000394A93421AD84FF00008A36823F003030B
:104100003B43A360FFF714FD41F288390746A368DB
:10411000726803F00C03B3EB820F3FF47DAFFFF73F
:1041200007FDC01B4845F2D9032069E7A36813F0D7
:10413000F00F04D08807DED5B368002BDBD1A3686D
:1041400023F0F00343F08003A3604FF08008D4E72E
:10415000022F09D113F4003F3FF451AFFFF714FFD2
:104160001D4B9842C7D9EAE713F4806FF4E7B8F122
:10417000800F01BF124A936823F0F003936065E754
:10418000236823F00F032B432360FFF7D1FC41F298
:1041900088380746236803F00F03AB423FF45DAF56
:1041A000FFF7C6FCC01B4045F4D9BDE7A368F16822
:1041B00023F4E0630B43A36055E700BF00200240F7
:1041C000001002408849010800000020080000207B
:1041D00000127A000024F40000B4C4042DE9F34175
:1041E0000446006810F4002056D0994DAB6DD800FD
:1041F00044D4AB6D43F08053AB65AB6D03F080539B
:104200000193019B0126934F3B6843F480733B600D
:10421000FFF78EFC80463B68D90531D5D5F8903044
:1042200013F4407320D0226C93421DD0D5F8902017
:10423000D5F8903043F48033C5F89030D5F89030FD
:1042400022F4407123F48033D207C5F89030C5F8CA
:10425000901009D5FFF76CFC41F288378046D5F8FD
:1042600090309B0740F1EB80D5F89030226C23F41E
:1042700040731343C5F89030002008E00026C2E7E1
:10428000FFF756FCA0EB08000228C4D903201EB19A
:10429000AB6D23F08053AB652368DE0708D56C490E
:1042A0006568D1F8882022F003022A43C1F88820EB
:1042B0009D0708D56649A568D1F8882022F00C0230
:1042C0002A43C1F88820590708D56149E568D1F823
:1042D000882022F030022A43C1F888201A0708D526
:1042E0005B492569D1F8882022F0C0022A43C1F831
:1042F00088209F0608D556496569D1F8882022F4A0
:1043000040622A43C1F888205E0608D55049A56955
:10431000D1F8882022F440522A43C1F888201D0693
:1043200008D54B49E569D1F8882022F440422A4358
:10433000C1F88820D90508D54549256AD1F88820D3
:1043400022F440322A43C1F888209A0508D5404912
:10435000656AD1F8882022F440222A43C1F88820D7
:104360005F050FD53A49A56AD1F8882022F440129A
:104370002A43C1F88820B5F5801F02BFCA6842F4FD
:104380008012CA601E050FD53149E56AD1F8882030
:1043900022F440022A43C1F88820B5F5800F02BFFD
:1043A000CA6842F48012CA60DD040FD52849256B23
:1043B000D1F8882022F040722A43C1F88820B5F154
:1043C000807F02BFCA6842F48012CA6099040FD588
:1043D0001F49656BD1F8882022F040622A43C1F85A
:1043E0008820B5F1006F02BFCA6842F48012CA602B
:1043F0005A040FD51649A56BD1F8882022F04062E7
:104400002A43C1F88820B5F1006F02BFCA6842F4A0
:104410008012CA601B040FD50D4AE16BD2F88830B8
:1044200023F040530B43B1F1805FC2F8883003D1D1
:10443000D36843F48033D36002B0BDE8F081FFF766
:1044400077FBA0EB0800B8427FF609AF1EE700BF7C
:104450000010024000700040094A536943F4802371
:1044600010B55361EFF3108272B60023CC58C450DC
:104470000433B3F5807FF9D182F3108810BD00BFFB
:1044800000200240064B5A69002ABFBF054A9A60C5
:1044900002F188329A60BABF5869C00F0020704795
:1044A0000020024023016745044B5A6942F0004254
:1044B0005A615869C043C00F704700BF00200240D6
:1044C00070B50546FFF734FB0F4C06462369DA0347
:1044D0000BD423694CF2FA3213400DD00B494A68D1
:1044E0001A434A600120236170BDFFF721FB801B46
:1044F000A842EBD90320F7E72369DB0744BF012378
:1045000023610020F0E700BF002002400C000020E3
:104510002DE9F0471D4E98463378012B05460F468E
:10452000914631D04FF0010A4FF47A7086F800A01E
:10453000FFF7C6FF0446B8B97060CDB9144B58698F
:1045400040EA0A005861C7F80090BFF36F8FC7F8C0
:10455000048054464FF47A70FFF7B2FF24B10C4A3E
:10456000536923EA0403536100233370BDE8F087E5
:104570006B1E012BEED849463846FFF76DFFAB1E88
:104580005D425D41AC04E5E70220EFE70C0000204E
:1045900000200240064B10F0010F1EBF5A6942F086
:1045A00004025A615A6942F480325A61704700BF6E
:1045B00000200240084B5A69C00022F4FC7200F44B
:1045C000FF60104358615A6942F002025A615A6909
:1045D00042F480325A617047002002401448027F42
:1045E00002F0FD03012B10D1124B196821F4007168
:1045F0001960196841F400611960196821F40061BB
:104600001960196841F400711960023A012A0CD846
:10461000084B1A6842F480521A601A6822F48052D9
:104620001A601A6842F480621A60002303777047A8
:104630000C000020002002402DE9F843314D2B787A
:10464000012B064688465AD001274FF47A702F7006
:10465000FFF736FF044610BB2B4B68601A6812F454
:10466000007F1A6820D0510506D51A6822F48062AE
:104670001A6003232B7700E02F773368012B1DD1BD
:104680007068FFF787FF4FF47A70FFF719FF1E4A33
:10469000536923F0040304465361FFF79FFF00238F
:1046A0002B702046BDE8F883520505D51A6822F420
:1046B00080621A600223DDE72877DEE74FF0FF33E0
:1046C000C8F80030B768DFF84090D6E902321344EA
:1046D000BB42E2D971683846FFF76CFF4FF47A703D
:1046E000FFF7EEFED9F8143023F4FD73C9F8143047
:1046F00018B1C8F800700446CFE70137E5E7022497
:10470000CFE700BF0C000020002002402DE9F74F4A
:10471000DFF880815D4C00220B6833FA02F502D18C
:1047200003B0BDE8F08F012505FA02FE1EEA03037F
:1047300000F09F804E68032706F003054FEA420C05
:1047400007FA0CF96F1E012F34D8876827EA090A87
:10475000CF6807FA0CF747EA0A078760476827EA35
:104760000E0EC6F30017974047EA0E074760C7686A
:1047700027EA090E8F6807FA0CF747EA0E07022DA1
:10478000C76019D14FEAD20E00EB8E0E02F0070A75
:10479000DEF820704FEA8A0A4FF00F0B0BFA0AFB83
:1047A00027EA0B0B0F6907FA0AF747EA0B07CEF85F
:1047B000207001E0032DDAD1076805FA0CF527EA2D
:1047C00009073D4316F4403F056052D0D8F86050C9
:1047D00045F00105C8F86050D8F8605022F0030792
:1047E00007F1804705F0010507F58037019502F0D4
:1047F000030C019DBD684FEA8C0C4FF00F0E0EFAB2
:104800000CFEB0F1904F25EA0E0E34D0204DA84298
:1048100033D005F58065A84231D005F58065A84202
:104820002FD005F58065A8422DD005F58065A842FA
:1048300014BF0625052505FA0CF545EA0E05BD60F1
:10484000A568F70254BF9D431D43A560E568B70204
:1048500054BF9D431D43E5606568B70354BF9D4346
:104860001D4365602568F60354BF25EA03032B4307
:104870002360013250E70025DDE70125DBE7022553
:10488000D9E70325D7E70425D5E700BF0004014099
:1048900000040048001002402DE9F04F3C4C00227B
:1048A0004FF0010A4FF00F084FF0030B31FA02F3FB
:1048B00001D1BDE8F08F0AFA02FC1CEA01065AD0C9
:1048C00022F0030505F1804505F5803502F0030768
:1048D000AB68BF0008FA07F9B0F1904F09EA030E80
:1048E0004BD02C4B98424AD003F58063984248D075
:1048F00003F58063984246D003F58063984244D024
:1049000003F58063984214BF06230523BB4073451B
:1049100013D1236823EA06032360636823EA0603AE
:104920006360E36823EA0603E360A36823EA0603FF
:10493000A360AB6823EA0903AB60056853000BFA78
:1049400003F3D6081D4300EB8606056002F0070559
:10495000376AAD0008FA05F527EA05073762C5682A
:1049600025EA0305C560456825EA0C0545608568AC
:1049700025EA03038360013298E70023C6E7012399
:10498000C4E70223C2E70323C0E70423BEE700BF56
:1049900000040140000400480369194214BF0120CB
:1049A000002070470AB1816170478162704770B51D
:1049B000D0E913456560446D14B1D0E916456560D2
:1049C000D0E9105404F01F060124B4406C60046860
:1049D00063608368102B0BBFA260A160E160E2609E
:1049E00070BD000010B503680C490D4C0D4AA34280
:1049F00098BF0A46416C21F003010A448264DBB28D
:104A0000094AC264083B1422B3FBF2F3012203F00B
:104A10001F0302FA03F3036510BD00BF0008024044
:104A200007040240200802408008024038B50028F0
:104A300057D002682C4B9A424FF0140145D82B4BAB
:104A4000D318B3FBF1F32A499B00C0E910130223EA
:104A500080F82530D0E902430569116823432B43D0
:104A600045692B4385692B43C5692B43056A6FF361
:104A70000E112B430B431360FFF7B4FFB4F5804FC7
:104A800004BF002343604368816CDAB20A60D0E956
:104A90001314013B032B4C601ED8164B164981653D
:104AA000D3189B000121013A01FA02F2002143656B
:104AB000C2651960114B5A6400230122C36380F858
:104AC000243080F82520184638BD0D4BD318B3FB91
:104AD000F1F30C499B00B8E70023C0E91533C36527
:104AE000EAE70120F0E700BF07040240F8FFFDBF3E
:104AF000000002403F8200104009024000090240CD
:104B0000F8FBFDBF0004024038B5002841D0026820
:104B1000136823F0010313601F4B9A424FF01401F6
:104B200030D81E4BD318B3FBF1F31D499B00C0E9ED
:104B30001013012403F01F0304FA03F3002515608A
:104B40004B60FFF74FFF836C41681D60D0E9133263
:104B50005A604A1E032A06D8124BCB189B00944079
:104B60001D60114B5C640023C363C0E91533C0E9C9
:104B70000B33C0E90D33C36580F8253080F824304D
:104B8000184638BD094BD318B3FBF1F308499B0015
:104B9000CDE70120F5E700BF07040240F8FFFDBFA5
:104BA000000002403F82001000090240F8FBFDBFF8
:104BB0000004024070B590F82450012D044637D00F
:104BC000012580F8245090F82550012D4FF0000564
:104BD0002CD1022680F82560C56305682E6826F072
:104BE00001062E60FFF7E3FE036BBBB12B6843F0B9
:104BF0000E032B60A36C1A68D20342BF1A6842F4FA
:104C000080721A60636D1BB11A6842F480721A6078
:104C10002B6843F001032B60002070BD2B6823F04C
:104C200004032B602B6843F00A03E2E780F824506A
:104C30000220F2E790F82520022A034609D0042238
:104C4000C2630120012283F82520002283F824205A
:104C500070470268806C116821F00E0111600168D4
:104C600021F480710160116821F001011160D3E924
:104C7000100202F01F0101228A404260D3E9132191
:104C800051605A6D32B1116821F480711160D3E91D
:104C9000162151600020D5E708B590F82530022B89
:104CA00009D00423C3630022012380F8253080F853
:104CB0002420184608BD03681A6822F00E021A6004
:104CC0001A6822F001021A60826C136823F4807360
:104CD0001360D0E9101303F01F02012393404B60CF
:104CE000D0E913325A60436D33B11A6822F48072EE
:104CF0001A60D0E916325A60012380F8253000236B
:104D000080F82430836B03B198470020D2E7016C10
:104D1000426C036870B402F01F020E681D68042420
:104D2000944034420ED015F0040F0BD01A6892064E
:104D30005EBF1A6822F004021A60036B4C6073B302
:104D400070BC184702249440344212D015F0020F70
:104D50000FD01A68950606D41A6822F00A021A6063
:104D6000012380F8253000234C6080F82430C36A8A
:104D7000E5E708249440344211D02C070FD51C6875
:104D800024F00E041C60012303FA02F24A60C3639C
:104D900080F82530002380F82430436BCFE770BCC7
:104DA00070470000284B1A6818BB02F4C062B2F5C5
:104DB000806FD3F8802022F48072C3F8802040D125
:104DC0001A6822F4C06242F400721A601F4A126824
:104DD00032214A431E49B2FBF1F2013259694905B9
:104DE00000D522B95B6958052BD503207047013ADD
:104DF000F4E7B0F5007F1FD102F4C062B2F5806F16
:104E0000D3F8802042F48072C3F8802019D11A6848
:104E100022F4C06242F400721A600C4A1268322115
:104E20004A430B49B2FBF1F2013259694905D9D520
:104E3000002AD7D0013AF8E722F4C06242F4806237
:104E40001A600020704700BF007000400000002082
:104E500040420F00024A936843F4804393607047D6
:104E6000007000400749CA6822F4E062030212049D
:104E700003F4E063120C134343F0BF6343F40033C5
:104E8000CB60704700ED00E0144BDB68C3F30223F6
:104E900030B5DD1E042D94BFC3F1070304234FF08A
:104EA000FF3488BF002504FA03F321EA0301AC4074
:104EB000002822EA040201FA05F141EA0201AEBF2C
:104EC00000F16040064A00F00F004FEA0113AABF4C
:104ED00000F56140135480F8003330BD00ED00E070
:104EE00014ED00E0002807DB044A4109012300F02B
:104EF0001F00834042F82130704700BF00E100E00E
:104F000000280CDB4309064900F01F002033012272
:104F1000824041F82320BFF34F8FBFF36F8F70475C
:104F200000E100E00138B0F1807F0BD24FF0E023C8
:104F3000054A5861F02182F8231000200722986169
:104F40001A6170470120704700ED00E0154B984250
:104F50000BD103F5DE339A6B42F400129A639A6B1D
:104F600022F400129A63002070470F4B984209D137
:104F700003F5DC339A6B42F480029A639A6B22F455
:104F80008002EFE7094B984209D103F5CC339A6BC5
:104F900042F080429A639A6B22F08042E2E701205D
:104FA000704700BF005400400058004000780040A7
:104FB000036823F0010310B50360D1E902340268ED
:104FC00043EA042322F4F852134303604B6803615D
:104FD00003680C6943F001030360836823F4004312
:104FE000836082688B696FF30A02234313438360F3
:104FF0001CB1836843F40043836003680A6823F4A8
:1050000040131343036043684A6923F40043134386
:105010004360002010BD2DE9F04702460D6895FA67
:10502000A5F44FF0010CB4FA84F4032735FA04F028
:1050300001D1BDE8F0870CFA04F32B4069D0486831
:10504000461E012E1ED8966893FAA3FEBEFA8EFE67
:105050004FEA4E0E07FA0EFE26EA0E0893FAA3FE5A
:105060008E68BEFA8EFE4FEA4E0E06FA0EF646EA3D
:1050700008069660566826EA050ECE686E434EEA2C
:1050800006065660D66893FAA3FEBEFA8EFE4FEA75
:105090004E0E07FA0EFE26EA0E0893FAA3FE0E69DC
:1050A000BEFA8EFE4FEA4E0E06FA0EF646EA0806E5
:1050B0000228D6601AD1FF2BD1F814E02BD8D2F8F1
:1050C000208093FAA3F6B6FA86F64FF00F09B600E1
:1050D00009FA06F628EA060893FAA3F6B6FA86F65F
:1050E000B6000EFA06F646EA08061662D2F800E0A6
:1050F00093FAA3F6B6FA86F6760007FA06F62EEAD3
:10510000060693FAA3F3B3FA83F35B0098403043A7
:10511000106001348AE7D2F824801E0A96FAA6F9B4
:10512000B9FA89F94FF00F0A4FEA89090AFA09F921
:1051300028EA090896FAA6F6B6FA86F6B6000EFA36
:1051400006FE4EEA08065662D0E770B5044600280F
:1051500067D0436A002B5DD14268B2F5827F00D0F0
:10516000C3610023A36294F85D3003F0FF0223B90A
:1051700084F85C20204601F0F3FF2268E0680223F7
:1051800084F85D301368B0F5E06F23F040031360DE
:105190004FF0000342D91D46B0F5706F18BFA362EF
:1051A000A6686368A16906F4044603F48273334376
:1051B000266906F002063343666906F001063343AA
:1051C00001F400763343E66906F038063343266A75
:1051D00006F080063343A66A06F400563343136094
:1051E000666B636A06F0080603F0100300F4706053
:1051F0003343090C034301F004010B432B43536079
:10520000D36923F40063D36100200123206684F86E
:105210005D3070BD0023C0E90433A2E74FF4805530
:10522000BCE70120F5E710B5044680B1026802230F
:1052300080F85D30136823F04003136001F0C2FF73
:105240000020206684F85C0084F85D0010BD012019
:10525000FCE70000036A23F0010370B50362036AF0
:10526000446882690D6822F4803222F073022A4376
:105270008D6823F002032B431B4DA8420FD005F588
:105280000065A8420BD005F54065A84207D005F59A
:105290008065A84203D005F58065A8421ED1CD687F
:1052A00023F008032B43104DA84223F004030FD032
:1052B00005F50065A8420BD005F54065A84207D06A
:1052C00005F58065A84203D005F58065A84205D1A3
:1052D00024F44075D1E9054634432C43446082618F
:1052E0004A684263036270BD002C0140036A23F4E4
:1052F000807370B50362036A4468C2690D6822F462
:10530000803222F073022A438D6823F4007343EA4B
:105310000523164DA84203D005F50065A8421AD111
:10532000CD6823F4006343EA0523104DA84223F41B
:10533000806303D005F50065A84206D124F44055EA
:10534000D1E90546344345EA04144460C2614A6821
:10535000C263036270BD064DA842EFD005F58065BB
:10536000A842EBD005F58065E6E700BF002C0140C0
:1053700000400140036A23F4805370B50362036A5E
:105380004468C2690D6822F0807222F4E64242EA63
:1053900005228D6823F4005343EA0533154DA842D6
:1053A00003D005F50065A8421AD1CD6823F4004367
:1053B00043EA05330F4DA84223F4804303D005F59B
:1053C0000065A84206D124F44045D1E9054634439E
:1053D00045EA84144460C2614A680264036270BD95
:1053E000054DA842EFD005F58065A842EBD005F544
:1053F0008065E6E7002C014000400140036A23F489
:10540000803330B50362036A4468026D0D6822F48C
:10541000803222F070022A438D6823F4003343EA7D
:1054200005430F4DA8420FD005F50065A8420BD0EB
:1054300005F54065A84207D005F58065A84203D070
:1054400005F58065A84204D14D6924F4803444EA0E
:105450000524446002654A688264036230BD00BF6F
:10546000002C0140036A23F4801330B50362036A01
:105470004468026D0D6822F0807222F4E04242EA34
:1054800005228D6823F4001343EA05530E4DA8420C
:105490000FD005F50065A8420BD005F54065A84280
:1054A00007D005F58065A84203D005F58065A842C0
:1054B00004D14D6924F4802444EA852444600265C3
:1054C0004A68C264036230BD002C0140022310B55B
:1054D00080F83D300368196A41F211121142044606
:1054E00008D1196A44F24442114202BF1A6822F0FC
:1054F00001021A60204601F0DDFF002084F8480018
:1055000084F83C0084F83E0084F83F0084F84000B2
:1055100084F8410084F8420084F8430084F8440091
:1055200084F8450084F8460084F8470084F83D007C
:1055300010BD10B5846A626A82420BD101232377C1
:10554000D2690AB984F83E30204601F017F90023E9
:10555000237710BDA36A834208D102222277DB6938
:10556000002BF1D1012384F83F30EDE7E36A834259
:1055700008D104222277DB69002BE5D1012384F8CE
:105580004030E1E7236B8342DED108222277DB69DA
:10559000002BD9D1012384F84130D5E7704710B5ED
:1055A000846A636A834207D1012323772046FFF789
:1055B000F5FF0023237710BDA36A834201D10223A4
:1055C000F3E7E36A834201D10423EEE7236B8342CE
:1055D000ECD10823E9E7704710B5846A636A834217
:1055E00009D10123237784F83E302046FFF7F3FFEB
:1055F0000023237710BDA36A834205D102232377BA
:10560000012384F83F30F0E7E36A83424FF001035F
:1056100004D10422227784F84030E6E7226B8242EC
:1056200003BF0822227784F8413084F83D30DCE75C
:105630002B4A036890420ED0B0F1804F0BD0A2F5F8
:105640009432904207D002F58062904203D002F576
:10565000963290423AD14A6823F070031343204AAD
:1056600090420ED0B0F1804F0BD0A2F59432904210
:1056700007D002F58062904203D002F59632904244
:1056800003D1CA6823F4407313434A6923F08003AB
:10569000134303608B68C3620B688362104B9842AC
:1056A0000FD003F5006398420BD003F54063984296
:1056B00007D003F58063984203D003F580639842D6
:1056C00001D10B690363012343617047054A90428E
:1056D000D7D002F580629042D3D002F58062CEE747
:1056E000002C01400040014010B5044650B390F832
:1056F0003D3003F0FF021BB980F83C2001F076FD3D
:105700000223206884F83D30211DFFF791FF01231B
:1057100084F84830002084F83E3084F83F3084F824
:10572000403084F8413084F8423084F8433084F8C3
:10573000443084F8453084F8463084F8473084F8A3
:105740003D3010BD0120FCE710B5044650B390F881
:105750003D3003F0FF021BB980F83C2001F066FDEC
:105760000223206884F83D30211DFFF761FF0123EB
:1057700084F84830002084F83E3084F83F3084F8C4
:10578000403084F8413084F8423084F8433084F863
:10579000443084F8453084F8463084F8473084F843
:1057A0003D3010BD0120FCE7036A23F0100370B503
:1057B0000362036A446882690D6822F0807222F4F1
:1057C000E64242EA05228D6823F0200343EA0513EE
:1057D000154DA84203D005F50065A8421AD1CD6841
:1057E00023F0800343EA05130F4DA84223F0400342
:1057F00003D005F50065A84206D124F44065D1E93F
:105800000546344345EA8404446082614A68826301
:10581000036270BD054DA842EFD005F58065A84232
:10582000EBD005F58065E6E7002C01400040014023
:1058300038B590F83C30012B044671D00C2A4FD07B
:1058400009D8042A2CD0082A3AD0C2B1012000235A
:1058500084F83C3038BD102A52D0142AF6D10068A2
:10586000FFF700FE036D0A6943F400630365036DEF
:1058700023F480630365036D43EA02234EE000686E
:10588000FFF7E8FC83690A6943F0080383618369D1
:1058900023F0040383618369134383610020D6E707
:1058A0000068FFF781FF83690A6943F4006383613D
:1058B000836923F480638361836943EA0223ECE70D
:1058C0000068FFF713FDC3690A6943F00803C36169
:1058D000C36923F00403C361C3691343C361DDE7F4
:1058E0000068FFF747FDC3690A6943F40063C361B9
:1058F000C36923F48063C361C36943EA0223EDE70C
:105900000068FFF77BFD036D0A6943F00803036538
:10591000036D23F004030365036D13430365BDE7C3
:10592000022097E710B584680A4324F47F4442EAD2
:1059300003222243826010BD38B590F83C30012B21
:1059400004464FF0020300F0A58080F83D30006867
:10595000514B8268134083600B68702B54D035D84C
:10596000502B65D016D8402B7BD005D8202B07D0E4
:1059700004D833F0100203D001202FE0302BFBD1EC
:10598000826822F4401222F070021A4342F00702A9
:10599000826042E0602BEFD1036A4D68C96823F052
:1059A000100303628269036A22F4704223F0A003A9
:1059B00043EA051342EA013282610362836823F4F9
:1059C000401323F0700343F0670325E0B3F5005F55
:1059D00025D00AD8B3F5805018BF0120012384F8E0
:1059E0003D30002384F83C3038BD2C4A9342C7D068
:1059F00005D8B3F1101FC3D0103A9342BFE7284A2D
:105A00009342BDD03032F8E7CB68D1E90121FFF7EE
:105A100089FF836843F0770383600020DEE7CB686B
:105A2000D1E90121FFF77EFF836843F48043F3E768
:105A30004A68CD68016A036A23F00103036283693F
:105A400021F00A0123F0F00343EA05130A438361BE
:105A50000262836823F4401323F0700343F057037A
:105A6000DAE74A68CD68016A036A23F0010303623A
:105A7000836921F00A0123F0F00343EA05130A4386
:105A800083610262836823F4401323F0700343F0C0
:105A90004703C1E71846A7E78800CEFF3000100093
:105AA00040001000036A10B501F01F0101248C4072
:105AB00023EA04030362036A8A401A43026210BDA8
:105AC000082908B51BD005D859B104290FD090F882
:105AD000433016E00C2923D01029F8D190F8423039
:105AE0000FE090F83E30012B22D0012043E090F8E7
:105AF0003F30012BF9D1022380F83F301BE090F8B2
:105B00004030013B18BF0123002BEED10C294FF090
:105B1000020334D007D808292ED080F843300AE099
:105B200090F84130EDE71029F7D180F8423002E0DB
:105B3000022380F83E3000680122FFF7B3FF204BBC
:105B400098421FD003F5006398421BD003F54063D1
:105B5000984217D003F58063984213D003F5806311
:105B600098420FD0B0F1804F1FD18268154B13407F
:105B7000062B20D1002008BD80F84030DBE780F8FC
:105B80004130D8E7436C43F4004343640C4B9842E4
:105B9000EBD00D4B9842E8D003F540639842E4D037
:105BA000036843F001030360E4E7084B9842DCD04C
:105BB00003F58063EBE7B3F5803FF1D1DAE700BF8F
:105BC000002C0140070001000034014000040040A7
:105BD000FFF776BF38B50022044600680D46FFF790
:105BE00061FF274B98420FD003F5006398420BD01A
:105BF00003F54063984207D003F58063984203D0D1
:105C000003F5806398420DD1026A41F211131A42E2
:105C100008D1026A44F244431A4202BF436C23F49F
:105C200000434364026A41F211131A4208D1026A26
:105C300044F244431A4202BF036823F001030360A5
:105C4000082D4FF0010315D006D865B1042D0ED0F4
:105C5000012384F8433008E00C2D0ED0102DF7D12D
:105C600084F8423001E084F83E30002038BD84F8EA
:105C70003F30FAE784F84030F7E784F84130F4E742
:105C8000002C0140FFF7A6BF38B50D46082D04468D
:105C900011461BD005D85DB1042D14D094F84320D3
:105CA00008E00C2D15D0102DF8D190F8422001E01D
:105CB00090F83E20A2F1020CDCF1000242EB0C0253
:105CC00052B1022077E090F83F20F3E790F84020AF
:105CD000F0E790F84120EDE7082D1BD008D875B10A
:105CE000042D14D094F84320012A0ED1E9B918E00C
:105CF0000C2D12D0102DF5D194F8422001E094F82B
:105D00003E20501E4242424152B9012053E094F8D5
:105D10003F20F6E794F84020F3E794F84120F0E7BD
:105D200009B9002BF1D1082D5AD0082D4FF00202ED
:105D300006D865B1042D3FD0022384F84330E4E750
:105D40000C2D62D0102DF7D184F84220DDE7606A77
:105D500084F83E20474AC262474A0263474A426388
:105D600022683432FEF726FF0028CED12068C368AF
:105D700043F40073C36001222946FFF793FE404BB2
:105D8000984257D003F50063984253D003F540631F
:105D900098424FD003F5806398424BD003F580635F
:105DA000984247D0B0F1804F4BD18268354B1340B9
:105DB000062B5AD1002038BDA06A84F83F202D4A16
:105DC000C2622D4A02632D4A426322683832FEF7CE
:105DD000F1FE002899D12068C36843F48063C9E7C5
:105DE000E06A022284F84020224AC262224A026308
:105DF000224A426322683C32FEF7DCFE002884D14E
:105E00002068C36843F40063B4E7206B84F8412042
:105E1000184AC262184A0263184A42632268403232
:105E2000FEF7C8FE00287FF470AF2068C36843F413
:105E300080539FE7436C43F400434364104B984204
:105E4000B2E7114B9842B0D003F580639842ACD0D2
:105E500003F596339842A8D003F540639842A4D046
:105E6000036843F001030360A4E7B3F5803FF7D173
:105E7000A0E700BF335500089F550008D95500081A
:105E8000002C01400700010000040040FFF7FCBEA9
:105E9000082938B504460D4657D004D861B1042905
:105EA0004CD0012038BD0C29FBD10268006BD368AF
:105EB00023F48053D36005E00268406AD36823F47A
:105EC0000073D360FEF7E8FE206800222946FFF742
:105ED000E9FD274B98420FD003F5006398420BD0A1
:105EE00003F54063984207D003F58063984203D0DE
:105EF00003F5806398420DD1026A41F211131A42F0
:105F000008D1026A44F244431A4202BF436C23F4AC
:105F100000434364026A41F211131A4208D1026A33
:105F200044F244431A4202BF036823F001030360B2
:105F300001238DB984F83E300020B3E70268806AFF
:105F4000D36823F48063D360BCE70268C06AD36877
:105F500023F40063D360B5E7042D02D184F83F3009
:105F6000EAE7082D0CBF84F8403084F84130E3E7BD
:105F7000002C0140FFF78CBF30B590F83C30012B6E
:105F800004464FF0020037D023681C4D84F83D00D2
:105F9000AB425A68986803D005F50065AB4203D15F
:105FA0004D6822F470022A430D6822F0007222F03C
:105FB00070022A435A60114A934212D0B3F1804FC3
:105FC0000FD0A2F5943293420BD002F58062934237
:105FD00007D002F59632934203D002F54062934215
:105FE00004D1896820F080020A439A6001230020CE
:105FF00084F83D3084F83C0030BD00BF002C0140E7
:1060000030B590F83C30012B4CD0CB688A68264CD8
:1060100023F4407313434A6823F4806313430A68EC
:1060200023F4006313430A6923F4805313434A693A
:1060300023F4005313430A6B23F4804313438A6908
:1060400023F4702343EA02430268A24202D0174DB0
:10605000AA4221D1CD6923F08053A24243EA05032D
:1060600002D0124CA24217D18C6A23F4700343EA87
:1060700004530C6A23F0807323434C6A23F00073AB
:106080002343094CA24203D004F50064A24203D189
:10609000C96A23F000530B435364002380F83C305B
:1060A000184630BD0220FCE7002C014000340140BE
:1060B0001C4B98420BD103F558431A6C42F48042B2
:1060C0001A641A6C22F480421A6400207047164B3E
:1060D00098420AD103F5E6339A6B42F400329A6390
:1060E0009A6B22F400329A63EFE7104B984209D181
:1060F00003F5E4339A6B42F480229A639A6B22F49C
:106100008022F0E70A4B984209D103F5E2339A6BFB
:1061100042F400229A639A6B22F40022E3E7012002
:10612000704700BF00380140004400400048004074
:10613000004C004038B50368DB0704460D4659D4CF
:106140002A69AB68016813436A691343EA69134318
:10615000294A0A40134303604368EA6823F4405322
:10616000134343608368AA6923F440731343836035
:10617000224B984220D1032000F0A2F848B36A686D
:106180003AB32B680B2B15D81D4951F82330E96918
:10619000B0FBF3F0B1F5004F4FEA520325D103EB0A
:1061A0004003B3FBF2F34FF6F0721A40C3F342031D
:1061B0001343E36000200DE0124B984201D10C2004
:1061C000DAE7114B984201D13020D5E70F4B9842C6
:1061D00007D00120E26A2B8822F00F021343E3620A
:1061E00038BDC02000F0D4F8C8E70344B3FBF2F395
:1061F0009BB2DEE70120F3E7F369FFEF00380140CF
:10620000984901080044004000480040004C00400C
:10621000024B1868C0F38020704700BF0010024096
:10622000024BD3F89000C0F34000704700100240CA
:10623000044B054A9B68C3F30313D35C03F01F03AD
:10624000D84070470010024088490108044B054AB5
:106250009B68C3F30223D35C03F01F03D84070474D
:106260000010024080490108124B9A6802F00C02AB
:10627000082A1BD00C2A1BD1D8680F4A0F4900F0FE
:106280000300032808BF1146D868DA68DB68C3F347
:106290004163C0F30620C2F30312013348430132C5
:1062A0005B00B0FBF2F0B0FBF3F0704702487047C0
:1062B000024870470010024000127A000024F400E7
:1062C000032810B52AD12C4C2C4AD4F8883003F07E
:1062D000030343F44033934209D0B3F1031F0CD0BE
:1062E000013A93420DD1BDE81040FFF7BDBFFFF763
:1062F0008FFF00283DD1002010BDFFF791FFC003A4
:10630000FAE7FFF7B1FFFFF793FFA3681C4AC3F357
:10631000C223D35C03F01F03D840EDE70C2817D14C
:10632000154B184AD3F8883003F00C0343F440238C
:106330009342DCD0B3F10C1FDFD0043A9342D2D0A9
:10634000FFF792FFFFF774FFBDE81040FFF77EBF35
:106350003028D0D1084B0C4AD3F8883003F03003F2
:1063600043F440139342C2D0B3F1301FC5D0103A6A
